:0A07EC0050617373576F72643A0096
:10000300E4F508F509F50A750B02F50CF50DF50E87
:10001300750F01F510F511F512751301F517F516A6
:10002300F515F514F51BF51AF519F5181207BD7B2F
:10003300FF7A0779EC7D017F01120709AD09AC084E
:100043007F057E0012058EAD0BAC0A7F067E001283
:10005300058EE513451260731204958F59E55960B7
:100063005ED3940A504BC3E50D9405E50C94005000
:1000730040AF17AE16AD15AC14E47B0AFAF9F812CB
:1000830004358F178E168D158C14E55975F00A8477
:10009300E4FCFDFEE51725F0F517EE3516F516ED34
:1000A3003515F515EC3514F514050DE50D70020540
:1000B3000CAA16AB177520057D017F0212078A1261
:1000C3000495EF640D708BF512F51320B150AD0953
:1000D300AC087F057E0012058EAD0BAC0A7F067E51
:1000E3000012058E7F327E00120752050BE50B705E
:1000F30002050A640A450A700B0509E50970020541
:1001030008E48014E5096409450870BFE50B640938
:10011300450A70B7F508F509F50AF50B80AD120429
:1001230095EF6410600302003FE50B450A7009E593
:10013300094508700302028C7F647E0012072CAE0F
:1001430008AF097C007D0A1203CEE50B2FFFE50AF9
:100153003EFED3EF940AEE94004034E4F510F5111B
:10016300AD09AC087F057E0012058EAD0BAC0A7F8E
:10017300067E0012058E7F017E001207520511E5EF
:100183001170020510B490D8E510B401D38030E4A7
:10019300F510F511AD09AC087F057E0012058EAD93
:1001A3000BAC0A7F067E0012058E7F507E0012077D
:1001B300520511E51170020510640A451070D575DA
:1001C300A0017F327E00120752E4F5A07F32FE12B7
:1001D3000752E50B450A700DF50A750B0AE509157B
:1001E3000970021508E50B150B7002150AE4F50CEE
:1001F300F50D20B3711204958F59E5596050D394CE
:100203000A504BC3E50D9405E50C94005040AF1B19
:10021300AE1AAD19AC18E47B0AFAF9F81204358F5B
:100223001B8E1A8D198C18E55975F00A84E4FCFDB0
:10023300FEE51B25F0F51BEE351AF51AED3519F51C
:1002430019EC3518F518050DE50D7002050CE4F5EC
:100253005AE55AC39407509AAF5A7E00E4FDFC1244
:10026300058E055A80EBAF1BAE1AAD19AC18AB1750
:10027300AA16A915A814C3120484600302012C7FD3
:10028300E87E031206E302003F755A01AF5A7E006F
:10029300E4FDFC12058E055AE55AC3940940ED7F2F
:0802A300327E0012072C80E1FD
:1006BB00003F0006005B004F0066006D007D0007E9
:1006CB00007F006F00770000001C00180014001062
:0806DB00000C000800040000FF
:04074E007F147E0096
:10075200EF1FAC0670011E4C600B007D027CC7DCF3
:09076200FEDDFC80EB7E007F014E
:01076B00226B
:08058E008E1C8F1D8C1E8D1FB9
:1005960078207C007D007BFF7A0679BB7E007F1683
:1005A60012037B78367C007D007BFF7A0679D17E4C
:1005B600007F1212037BE51D25E02436F808E6F5D8
:1005C600A0E51F25E02420F808E6F5807F017E00DF
:0605D600120752E4F5805B
:0105DC0022FC
:10049500E4FB7590FFC29320970E7F14FE1207525E
:1004A5003097FD12074E7B0120960B12074E3096B2
:1004B500FD12074E7B0520950B12074E3095FD1258
:1004C500074E7B0920940B12074E3094FD12074E00
:1004D5007B0DC29220970B12074E3097FD12074EE7
:1004E5007B0220960B12074E3096FD12074E7B06B7
:1004F50020950B12074E3095FD12074E7B0A20946E
:100505000B12074E3094FD12074E7B0E7590FFC2FD
:100515009120970B12074E3097FD12074E7B032053
:10052500960B12074E3096FD12074E7B0720950B52
:1005350012074E3095FD12074E7B0B20940B1207C8
:100545004E3094FD12074E7B0F7590FFC290209799
:100555000B12074E3097FD12074E7B0420960B12A7
:10056500074E3096FD12074E7B0820950B12074E5D
:100575003095FD12074E7B0C20940B12074E3094DC
:08058500FD12074E7B10AF03CD
:01058D00224B
:05080A00007FF7DFFE96
:01080F0022C6
:04072C00AD07AC0663
:10073000E4FBFAED25E0FFEC33FEC3EB9FEA9E50AD
:0D0740000CB2A512080A0BBB00010A80E6EE
:01074D002289
:0406E300AD07AC06AD
:1006E700E4FBFAED25E0FFEC33FEC3EB9FEA9E50F7
:0306F70010B2A599
:0706FA0000751CA6D51CFDD4
:070701000BBB00010A80E2BE
:0107080022CE
:0607D100C2A58F80D2A733
:0807D7007F027EEFDEFEDFFC75
:0107DF0022F7
:0A07F600C2A61207D1C2A70207D75E
:10076C00CFCDCFCECCCE1203E07C007D0A1203E0BD
:04077C00ED2430FF39
:0A078000D2A61207D1C2A70207D7C4
:1007A700AE07BE0104ED148006BE0209ED243F44E6
:0607B70080FF1207F6228C
:1007BD007F381207F67F0C1207F67F061207F67FB9
:0407CD00010207F628
:0A080000AC031207A7AF0402078043
:060709008B1C8A1D891EF5
:10070F001207A7E4FDAB1CAA1DA91E8D82758300DD
:0C071F001203A1FF60061207800D80E9A4
:01072B0022AB
:0C0688007F0AEA24FFFDE434FFFC7E0042
:080694008E218F228C238D249E
:10069C007F017E00E4FBEBC39524E5236480F874B2
:0E06AC008098500AAC21AD221203CE0B80E8DC
:0106BA00221D
:04078A008A1E8B1F19
:10078E001207A7AA20EAD39400400D120688AC1EC9
:08079E00AD1F12076C1A80ED7B
:0107A6002230
:1005DD001207A7C3EA64809480400B7F2B1207801B
:1005ED008A4D8B4E800E7F2D120780C3E49BF54EF6
:1005FD00E49AF54DAA4CEAD39400400D120688AC4E
:09060D004DAD4E12076C1A80ED90
:0106160022C1
:040617008A518B5227
:10061B001207A7AA53EAD3940040297F1012068A27
:10062B00AC51AD52CFCDCFCECCCE1203E0EF540FA9
:10063B00FEC3940AEE5004243080022437FF1207C5
:04064B00801A80D1C0
:01064F002288
:040650008A568B57E4
:100654001207A7AA58EAD394004028EA24FFFDE42D
:1006640034FFFC7F027E00120694AC56AD57CFCD0A
:10067400CFCECCCE1203E0EF54012430FF1207801A
:030684001A80D207
:010687002250
:030000000207E014
:0C07E000787FE4F6D8FD75815A02000312
:1002AB00E709F608DFFA8046E709F208DFFA803E35
:1002BB0088828C83E709F0A3DFFA8032E309F60822
:1002CB00DFFA8078E309F208DFFA807088828C838A
:1002DB00E309F0A3DFFA806489828A83E0A3F6083E
:1002EB00DFFA805889828A83E0A3F208DFFA804C18
:1002FB0080D280FA80C680D4806980F280338010EF
:10030B0080A680EA809A80A880DA80E280CA803357
:10031B0089828A83ECFAE493A3C8C582C8CCC583CF
:10032B00CCF0A3C8C582C8CCC583CCDFE9DEE7809F
:10033B000D89828A83E493A3F608DFF9ECFAA9F01E
:10034B00EDFB2289828A83ECFAE0A3C8C582C8CC74
:10035B00C583CCF0A3C8C582C8CCC583CCDFEADE8D
:10036B00E880DB89828A83E493A3F208DFF980CCEF
:10037B0088F0EF60010E4E60C388F0ED2402B404E8
:10038B000050B9F582EB2402B4040050AF2323458F
:06039B0082239002FB73B7
:1003A100BB010CE58229F582E5833AF583E0225011
:1003B10006E92582F8E622BBFE06E92582F8E2225B
:0D03C100E58229F582E5833AF583E4932275
:1003CE00EF8DF0A4A8F0CF8CF0A428CE8DF0A42E43
:0203DE00FE22FD
:1003E000BC000BBE0029EF8DF084FFADF022E4CC01
:1003F000F875F008EF2FFFEE33FEEC33FCEE9DECCA
:10040000984005FCEE9DFE0FD5F0E9E4CEFD22ED0F
:10041000F8F5F0EE8420D21CFEADF075F008EF2F59
:10042000FFED33FD4007985006D5F0F222C398FD4A
:050430000FD5F0EA22E7
:10043500E88FF0A4CC8BF0A42CFCE98EF0A42CFC66
:100445008AF0EDA42CFCEA8EF0A4CDA8F08BF0A4E4
:100455002DCC3825F0FDE98FF0A42CCD35F0FCEB43
:100465008EF0A4FEA9F0EB8FF0A4CFC5F02ECD3908
:0F047500FEE43CFCEAA42DCE35F0FDE43CFC2275
:10048400EB9FF5F0EA9E42F0E99D42F0E89C45F0CE
:010494002245
:00000001FF
